{
  "contractName": "PrivacyContract",
  "abi": [
    {
      "inputs": [
        {
          "internalType": "string",
          "name": "passwordSeed",
          "type": "string"
        }
      ],
      "name": "setPassword",
      "outputs": [],
      "stateMutability": "nonpayable",
      "type": "function"
    },
    {
      "inputs": [
        {
          "internalType": "bytes32",
          "name": "password",
          "type": "bytes32"
        },
        {
          "internalType": "string",
          "name": "name",
          "type": "string"
        },
        {
          "internalType": "string",
          "name": "data",
          "type": "string"
        }
      ],
      "name": "dataWrite",
      "outputs": [],
      "stateMutability": "nonpayable",
      "type": "function"
    },
    {
      "inputs": [
        {
          "internalType": "bytes32",
          "name": "password",
          "type": "bytes32"
        },
        {
          "internalType": "uint256",
          "name": "index",
          "type": "uint256"
        }
      ],
      "name": "dataRead",
      "outputs": [
        {
          "components": [
            {
              "internalType": "uint256",
              "name": "timestamp",
              "type": "uint256"
            },
            {
              "internalType": "string",
              "name": "name",
              "type": "string"
            },
            {
              "internalType": "string",
              "name": "data",
              "type": "string"
            }
          ],
          "internalType": "struct PrivacyContract.Data",
          "name": "",
          "type": "tuple"
        }
      ],
      "stateMutability": "view",
      "type": "function"
    },
    {
      "inputs": [
        {
          "internalType": "bytes32",
          "name": "password",
          "type": "bytes32"
        },
        {
          "internalType": "address",
          "name": "to",
          "type": "address"
        },
        {
          "internalType": "string",
          "name": "text",
          "type": "string"
        }
      ],
      "name": "messageWrite",
      "outputs": [],
      "stateMutability": "nonpayable",
      "type": "function"
    },
    {
      "inputs": [
        {
          "internalType": "bytes32",
          "name": "password",
          "type": "bytes32"
        },
        {
          "internalType": "uint256",
          "name": "index",
          "type": "uint256"
        }
      ],
      "name": "messageRead",
      "outputs": [
        {
          "components": [
            {
              "internalType": "address",
              "name": "from",
              "type": "address"
            },
            {
              "internalType": "string",
              "name": "text",
              "type": "string"
            },
            {
              "internalType": "uint256",
              "name": "timestamp",
              "type": "uint256"
            }
          ],
          "internalType": "struct PrivacyContract.Message",
          "name": "",
          "type": "tuple"
        }
      ],
      "stateMutability": "view",
      "type": "function"
    }
  ],
  "bytecode": "0x608060405234801561001057600080fd5b5061120a806100206000396000f3fe608060405234801561001057600080fd5b50600436106100575760003560e01c80631fcde25b1461005c578063290bb4531461008c57806374e2f3d7146100a85780637824f0a8146100c4578063bf2fcad1146100f4575b600080fd5b61007660048036038101906100719190610ba7565b610110565b6040516100839190610ce6565b60405180910390f35b6100a660048036038101906100a19190610d6d565b610347565b005b6100c260048036038101906100bd9190610dba565b6103ba565b005b6100de60048036038101906100d99190610ba7565b6105fd565b6040516100eb9190610ee0565b60405180910390f35b61010e60048036038101906101099190610f2e565b6107f8565b005b610118610a36565b826000600160003373ffffffffffffffffffffffffffffffffffffffff1673ffffffffffffffffffffffffffffffffffffffff168152602001908152602001600020600001549050808214801561017257506000801b8114155b6101b1576040517f08c379a00000000000000000000000000000000000000000000000000000000081526004016101a890610fff565b60405180910390fd5b600160003373ffffffffffffffffffffffffffffffffffffffff1673ffffffffffffffffffffffffffffffffffffffff1681526020019081526020016000206001016000858152602001908152602001600020604051806060016040529081600082015481526020016001820180546102299061104e565b80601f01602080910402602001604051908101604052809291908181526020018280546102559061104e565b80156102a25780601f10610277576101008083540402835291602001916102a2565b820191906000526020600020905b81548152906001019060200180831161028557829003601f168201915b505050505081526020016002820180546102bb9061104e565b80601f01602080910402602001604051908101604052809291908181526020018280546102e79061104e565b80156103345780601f1061030957610100808354040283529160200191610334565b820191906000526020600020905b81548152906001019060200180831161031757829003601f168201915b5050505050815250509250505092915050565b818160405160200161035a92919061110a565b60405160208183030381529060405280519060200120600160003373ffffffffffffffffffffffffffffffffffffffff1673ffffffffffffffffffffffffffffffffffffffff168152602001908152602001600020600001819055505050565b846000600160003373ffffffffffffffffffffffffffffffffffffffff1673ffffffffffffffffffffffffffffffffffffffff168152602001908152602001600020600001549050808214801561041457506000801b8114155b610453576040517f08c379a000000000000000000000000000000000000000000000000000000000815260040161044a90610fff565b60405180910390fd5b604051806060016040528042815260200187878080601f016020809104026020016040519081016040528093929190818152602001838380828437600081840152601f19601f82011690508083019250505050505050815260200185858080601f016020809104026020016040519081016040528093929190818152602001838380828437600081840152601f19601f82011690508083019250505050505050815250600160003373ffffffffffffffffffffffffffffffffffffffff1673ffffffffffffffffffffffffffffffffffffffff16815260200190815260200160002060010160008060003373ffffffffffffffffffffffffffffffffffffffff1673ffffffffffffffffffffffffffffffffffffffff16815260200190815260200160002060016002811061058b5761058a61112e565b5b01600081546105999061118c565b91905081905581526020019081526020016000206000820151816000015560208201518160010190805190602001906105d3929190610a57565b5060408201518160020190805190602001906105f0929190610a57565b5090505050505050505050565b610605610add565b826000600160003373ffffffffffffffffffffffffffffffffffffffff1673ffffffffffffffffffffffffffffffffffffffff168152602001908152602001600020600001549050808214801561065f57506000801b8114155b61069e576040517f08c379a000000000000000000000000000000000000000000000000000000000815260040161069590610fff565b60405180910390fd5b600160003373ffffffffffffffffffffffffffffffffffffffff1673ffffffffffffffffffffffffffffffffffffffff16815260200190815260200160002060020160008581526020019081526020016000206040518060600160405290816000820160009054906101000a900473ffffffffffffffffffffffffffffffffffffffff1673ffffffffffffffffffffffffffffffffffffffff1673ffffffffffffffffffffffffffffffffffffffff1681526020016001820180546107629061104e565b80601f016020809104026020016040519081016040528092919081815260200182805461078e9061104e565b80156107db5780601f106107b0576101008083540402835291602001916107db565b820191906000526020600020905b8154815290600101906020018083116107be57829003601f168201915b505050505081526020016002820154815250509250505092915050565b836000600160003373ffffffffffffffffffffffffffffffffffffffff1673ffffffffffffffffffffffffffffffffffffffff168152602001908152602001600020600001549050808214801561085257506000801b8114155b610891576040517f08c379a000000000000000000000000000000000000000000000000000000000815260040161088890610fff565b60405180910390fd5b60405180606001604052803373ffffffffffffffffffffffffffffffffffffffff16815260200185858080601f016020809104026020016040519081016040528093929190818152602001838380828437600081840152601f19601f82011690508083019250505050505050815260200142815250600160008773ffffffffffffffffffffffffffffffffffffffff1673ffffffffffffffffffffffffffffffffffffffff16815260200190815260200160002060020160008060008973ffffffffffffffffffffffffffffffffffffffff1673ffffffffffffffffffffffffffffffffffffffff16815260200190815260200160002060006002811061099b5761099a61112e565b5b01600081546109a99061118c565b919050819055815260200190815260200160002060008201518160000160006101000a81548173ffffffffffffffffffffffffffffffffffffffff021916908373ffffffffffffffffffffffffffffffffffffffff1602179055506020820151816001019080519060200190610a20929190610a57565b5060408201518160020155905050505050505050565b60405180606001604052806000815260200160608152602001606081525090565b828054610a639061104e565b90600052602060002090601f016020900481019282610a855760008555610acc565b82601f10610a9e57805160ff1916838001178555610acc565b82800160010185558215610acc579182015b82811115610acb578251825591602001919060010190610ab0565b5b509050610ad99190610b14565b5090565b6040518060600160405280600073ffffffffffffffffffffffffffffffffffffffff16815260200160608152602001600081525090565b5b80821115610b2d576000816000905550600101610b15565b5090565b600080fd5b600080fd5b6000819050919050565b610b4e81610b3b565b8114610b5957600080fd5b50565b600081359050610b6b81610b45565b92915050565b6000819050919050565b610b8481610b71565b8114610b8f57600080fd5b50565b600081359050610ba181610b7b565b92915050565b60008060408385031215610bbe57610bbd610b31565b5b6000610bcc85828601610b5c565b9250506020610bdd85828601610b92565b9150509250929050565b610bf081610b71565b82525050565b600081519050919050565b600082825260208201905092915050565b60005b83811015610c30578082015181840152602081019050610c15565b83811115610c3f576000848401525b50505050565b6000601f19601f8301169050919050565b6000610c6182610bf6565b610c6b8185610c01565b9350610c7b818560208601610c12565b610c8481610c45565b840191505092915050565b6000606083016000830151610ca76000860182610be7565b5060208301518482036020860152610cbf8282610c56565b91505060408301518482036040860152610cd98282610c56565b9150508091505092915050565b60006020820190508181036000830152610d008184610c8f565b905092915050565b600080fd5b600080fd5b600080fd5b60008083601f840112610d2d57610d2c610d08565b5b8235905067ffffffffffffffff811115610d4a57610d49610d0d565b5b602083019150836001820283011115610d6657610d65610d12565b5b9250929050565b60008060208385031215610d8457610d83610b31565b5b600083013567ffffffffffffffff811115610da257610da1610b36565b5b610dae85828601610d17565b92509250509250929050565b600080600080600060608688031215610dd657610dd5610b31565b5b6000610de488828901610b5c565b955050602086013567ffffffffffffffff811115610e0557610e04610b36565b5b610e1188828901610d17565b9450945050604086013567ffffffffffffffff811115610e3457610e33610b36565b5b610e4088828901610d17565b92509250509295509295909350565b600073ffffffffffffffffffffffffffffffffffffffff82169050919050565b6000610e7a82610e4f565b9050919050565b610e8a81610e6f565b82525050565b6000606083016000830151610ea86000860182610e81565b5060208301518482036020860152610ec08282610c56565b9150506040830151610ed56040860182610be7565b508091505092915050565b60006020820190508181036000830152610efa8184610e90565b905092915050565b610f0b81610e6f565b8114610f1657600080fd5b50565b600081359050610f2881610f02565b92915050565b60008060008060608587031215610f4857610f47610b31565b5b6000610f5687828801610b5c565b9450506020610f6787828801610f19565b935050604085013567ffffffffffffffff811115610f8857610f87610b36565b5b610f9487828801610d17565b925092505092959194509250565b600082825260208201905092915050565b7f70617373776f7264000000000000000000000000000000000000000000000000600082015250565b6000610fe9600883610fa2565b9150610ff482610fb3565b602082019050919050565b6000602082019050818103600083015261101881610fdc565b9050919050565b7f4e487b7100000000000000000000000000000000000000000000000000000000600052602260045260246000fd5b6000600282049050600182168061106657607f821691505b6020821081036110795761107861101f565b5b50919050565b600081905092915050565b7f66756e6374696f6e2073657450617373776f726428737472696e672900000000600082015250565b60006110c0601c8361107f565b91506110cb8261108a565b601c82019050919050565b82818337600083830152505050565b60006110f1838561107f565b93506110fe8385846110d6565b82840190509392505050565b6000611115826110b3565b91506111228284866110e5565b91508190509392505050565b7f4e487b7100000000000000000000000000000000000000000000000000000000600052603260045260246000fd5b7f4e487b7100000000000000000000000000000000000000000000000000000000600052601160045260246000fd5b600061119782610b71565b91507fffffffffffffffffffffffffffffffffffffffffffffffffffffffffffffffff82036111c9576111c861115d565b5b60018201905091905056fea2646970667358221220d5532fb1b85415c69c8d248606393254fffe0523e295e6b61af360e3598d476264736f6c634300080d0033",
  "immutableReferences": {},
  "source": "pragma solidity ^0.8.0;\n\ncontract PrivacyContract {\n    modifier checkPassword(bytes32 _pw) {\n        bytes32 password = _accounts[msg.sender].password;\n        require(_pw == password && password != 0, \"password\");\n        _;\n    }\n\n    mapping(address => uint256[2]) private _indexCount; //0 for messages 1 for data\n    mapping(address => Account) private _accounts;\n\n    struct Message {\n        address from;\n        string text;\n        uint256 timestamp;\n    }\n\n    struct Data {\n        uint256 timestamp;\n        string name;\n        string data;\n    }\n    struct Account {\n        bytes32 password;\n        mapping(uint256 => Data) data;\n        mapping(uint256 => Message) messages;\n    }\n\n    function setPassword(string calldata passwordSeed) external {\n        _accounts[msg.sender].password = bytes32(\n            keccak256(\n                abi.encodePacked(\"function setPassword(string)\", passwordSeed)\n            )\n        );\n    }\n\n    function dataWrite(\n        bytes32 password,\n        string calldata name,\n        string calldata data\n    ) external checkPassword(password) {\n        _accounts[msg.sender].data[++_indexCount[msg.sender][1]] = Data({\n            timestamp: block.timestamp,\n            name: name,\n            data: data\n        });\n    }\n\n    function dataRead(bytes32 password, uint256 index)\n        external\n        view\n        checkPassword(password)\n        returns (Data memory)\n    {\n        return _accounts[msg.sender].data[index];\n    }\n\n    function messageWrite(\n        bytes32 password,\n        address to,\n        string calldata text\n    ) external checkPassword(password) {\n        _accounts[to].messages[++_indexCount[to][0]] = Message({\n            from: msg.sender,\n            text: text,\n            timestamp: block.timestamp\n        });\n    }\n\n    function messageRead(bytes32 password, uint256 index)\n        external\n        view\n        checkPassword(password)\n        returns (Message memory)\n    {\n        return _accounts[msg.sender].messages[index];\n    }\n}\n",
  "sourcePath": "/home/xabier/Documentos/programacion/confidential/src/contracts/PrivacyContract.sol",
  "compiler": {
    "name": "solc",
    "version": "0.8.13+commit.abaa5c0e.Emscripten.clang"
  },
  "schemaVersion": "3.4.10",
  "updatedAt": "2022-11-13T16:40:05.662Z",
  "devdoc": {
    "kind": "dev",
    "methods": {},
    "version": 1
  },
  "userdoc": {
    "kind": "user",
    "methods": {},
    "version": 1
  }
}