{
  "contractName": "TestHelper",
  "abi": [
    {
      "inputs": [
        {
          "internalType": "string",
          "name": "seed",
          "type": "string"
        }
      ],
      "name": "seedToBytes",
      "outputs": [
        {
          "internalType": "bytes32",
          "name": "",
          "type": "bytes32"
        }
      ],
      "stateMutability": "pure",
      "type": "function",
      "constant": true
    }
  ],
  "bytecode": "0x608060405234801561001057600080fd5b50610268806100206000396000f3fe608060405234801561001057600080fd5b506004361061002b5760003560e01c80630f46c49814610030575b600080fd5b61004a60048036038101906100459190610102565b610060565b6040516100579190610168565b60405180910390f35b6000828260405160200161007592919061020e565b60405160208183030381529060405280519060200120905092915050565b600080fd5b600080fd5b600080fd5b600080fd5b600080fd5b60008083601f8401126100c2576100c161009d565b5b8235905067ffffffffffffffff8111156100df576100de6100a2565b5b6020830191508360018202830111156100fb576100fa6100a7565b5b9250929050565b6000806020838503121561011957610118610093565b5b600083013567ffffffffffffffff81111561013757610136610098565b5b610143858286016100ac565b92509250509250929050565b6000819050919050565b6101628161014f565b82525050565b600060208201905061017d6000830184610159565b92915050565b600081905092915050565b7f66756e6374696f6e2073657450617373776f726428737472696e672900000000600082015250565b60006101c4601c83610183565b91506101cf8261018e565b601c82019050919050565b82818337600083830152505050565b60006101f58385610183565b93506102028385846101da565b82840190509392505050565b6000610219826101b7565b91506102268284866101e9565b9150819050939250505056fea26469706673582212204d08557d33e47dd8826535dd096553aa7abe67d2e7e0f0e11ca8f52a399166ae64736f6c634300080d0033",
  "immutableReferences": {},
  "source": "pragma solidity ^0.8.0;\n\ncontract TestHelper {\n    function seedToBytes(string calldata seed) external pure returns (bytes32) {\n        return\n            bytes32(\n                keccak256(\n                    abi.encodePacked(\"function setPassword(string)\", seed)\n                )\n            );\n    }\n}\n",
  "sourcePath": "/home/xabier/Documentos/programacion/confidential/src/contracts/TestHelper.sol",
  "compiler": {
    "name": "solc",
    "version": "0.8.13+commit.abaa5c0e.Emscripten.clang"
  },
  "schemaVersion": "3.4.10",
  "updatedAt": "2022-11-12T18:37:11.547Z",
  "networkType": "ethereum",
  "devdoc": {
    "kind": "dev",
    "methods": {},
    "version": 1
  },
  "userdoc": {
    "kind": "user",
    "methods": {},
    "version": 1
  }
}